{
  "_format": "hh-sol-artifact-1",
  "contractName": "LeocodeToken",
  "sourceName": "contracts/LecodeToken.sol",
  "abi": [
    {
      "inputs": [],
      "stateMutability": "nonpayable",
      "type": "constructor"
    },
    {
      "anonymous": false,
      "inputs": [
        {
          "indexed": true,
          "internalType": "address",
          "name": "owner",
          "type": "address"
        },
        {
          "indexed": true,
          "internalType": "address",
          "name": "spender",
          "type": "address"
        },
        {
          "indexed": false,
          "internalType": "uint256",
          "name": "value",
          "type": "uint256"
        }
      ],
      "name": "Approval",
      "type": "event"
    },
    {
      "anonymous": false,
      "inputs": [
        {
          "indexed": true,
          "internalType": "address",
          "name": "from",
          "type": "address"
        },
        {
          "indexed": true,
          "internalType": "address",
          "name": "to",
          "type": "address"
        },
        {
          "indexed": false,
          "internalType": "uint256",
          "name": "value",
          "type": "uint256"
        }
      ],
      "name": "Transfer",
      "type": "event"
    },
    {
      "inputs": [
        {
          "internalType": "address",
          "name": "owner",
          "type": "address"
        },
        {
          "internalType": "address",
          "name": "spender",
          "type": "address"
        }
      ],
      "name": "allowance",
      "outputs": [
        {
          "internalType": "uint256",
          "name": "",
          "type": "uint256"
        }
      ],
      "stateMutability": "view",
      "type": "function"
    },
    {
      "inputs": [
        {
          "internalType": "address",
          "name": "spender",
          "type": "address"
        },
        {
          "internalType": "uint256",
          "name": "amount",
          "type": "uint256"
        }
      ],
      "name": "approve",
      "outputs": [
        {
          "internalType": "bool",
          "name": "",
          "type": "bool"
        }
      ],
      "stateMutability": "nonpayable",
      "type": "function"
    },
    {
      "inputs": [
        {
          "internalType": "address",
          "name": "account",
          "type": "address"
        }
      ],
      "name": "balanceOf",
      "outputs": [
        {
          "internalType": "uint256",
          "name": "",
          "type": "uint256"
        }
      ],
      "stateMutability": "view",
      "type": "function"
    },
    {
      "inputs": [],
      "name": "buy",
      "outputs": [],
      "stateMutability": "payable",
      "type": "function"
    },
    {
      "inputs": [],
      "name": "decimals",
      "outputs": [
        {
          "internalType": "uint8",
          "name": "",
          "type": "uint8"
        }
      ],
      "stateMutability": "view",
      "type": "function"
    },
    {
      "inputs": [
        {
          "internalType": "address",
          "name": "spender",
          "type": "address"
        },
        {
          "internalType": "uint256",
          "name": "subtractedValue",
          "type": "uint256"
        }
      ],
      "name": "decreaseAllowance",
      "outputs": [
        {
          "internalType": "bool",
          "name": "",
          "type": "bool"
        }
      ],
      "stateMutability": "nonpayable",
      "type": "function"
    },
    {
      "inputs": [
        {
          "internalType": "address",
          "name": "sender",
          "type": "address"
        }
      ],
      "name": "getLockedTokensAmount",
      "outputs": [
        {
          "internalType": "uint256",
          "name": "",
          "type": "uint256"
        }
      ],
      "stateMutability": "view",
      "type": "function"
    },
    {
      "inputs": [
        {
          "internalType": "uint256",
          "name": "_amount",
          "type": "uint256"
        }
      ],
      "name": "gimme",
      "outputs": [],
      "stateMutability": "nonpayable",
      "type": "function"
    },
    {
      "inputs": [
        {
          "internalType": "address",
          "name": "spender",
          "type": "address"
        },
        {
          "internalType": "uint256",
          "name": "addedValue",
          "type": "uint256"
        }
      ],
      "name": "increaseAllowance",
      "outputs": [
        {
          "internalType": "bool",
          "name": "",
          "type": "bool"
        }
      ],
      "stateMutability": "nonpayable",
      "type": "function"
    },
    {
      "inputs": [],
      "name": "isBuyInLessThanWeekAgo",
      "outputs": [
        {
          "internalType": "bool",
          "name": "",
          "type": "bool"
        }
      ],
      "stateMutability": "view",
      "type": "function"
    },
    {
      "inputs": [],
      "name": "name",
      "outputs": [
        {
          "internalType": "string",
          "name": "",
          "type": "string"
        }
      ],
      "stateMutability": "view",
      "type": "function"
    },
    {
      "inputs": [],
      "name": "payMeUp",
      "outputs": [],
      "stateMutability": "nonpayable",
      "type": "function"
    },
    {
      "inputs": [],
      "name": "symbol",
      "outputs": [
        {
          "internalType": "string",
          "name": "",
          "type": "string"
        }
      ],
      "stateMutability": "view",
      "type": "function"
    },
    {
      "inputs": [],
      "name": "totalSupply",
      "outputs": [
        {
          "internalType": "uint256",
          "name": "",
          "type": "uint256"
        }
      ],
      "stateMutability": "view",
      "type": "function"
    },
    {
      "inputs": [
        {
          "internalType": "address",
          "name": "to",
          "type": "address"
        },
        {
          "internalType": "uint256",
          "name": "amount",
          "type": "uint256"
        }
      ],
      "name": "transfer",
      "outputs": [
        {
          "internalType": "bool",
          "name": "",
          "type": "bool"
        }
      ],
      "stateMutability": "nonpayable",
      "type": "function"
    },
    {
      "inputs": [
        {
          "internalType": "address",
          "name": "from",
          "type": "address"
        },
        {
          "internalType": "address",
          "name": "to",
          "type": "address"
        },
        {
          "internalType": "uint256",
          "name": "amount",
          "type": "uint256"
        }
      ],
      "name": "transferFrom",
      "outputs": [
        {
          "internalType": "bool",
          "name": "",
          "type": "bool"
        }
      ],
      "stateMutability": "nonpayable",
      "type": "function"
    }
  ],
  "bytecode": "0x608060405260006006553480156200001657600080fd5b506040518060400160405280600d81526020017f4c656f636f646520546f6b656e000000000000000000000000000000000000008152506040518060400160405280600381526020017f4c454f000000000000000000000000000000000000000000000000000000000081525081600390805190602001906200009b929190620005a5565b508060049080519060200190620000b4929190620005a5565b50505033600560006101000a81548173ffffffffffffffffffffffffffffffffffffffff021916908373ffffffffffffffffffffffffffffffffffffffff16021790555062000137306200010d6200013d60201b60201c565b600a6200011b9190620007de565b620186a06200012b91906200091b565b6200014660201b60201c565b62000b0f565b60006012905090565b600073ffffffffffffffffffffffffffffffffffffffff168273ffffffffffffffffffffffffffffffffffffffff161415620001b9576040517f08c379a0000000000000000000000000000000000000000000000000000000008152600401620001b090620006d6565b60405180910390fd5b620001cd60008383620002bf60201b60201c565b8060026000828254620001e1919062000726565b92505081905550806000808473ffffffffffffffffffffffffffffffffffffffff1673ffffffffffffffffffffffffffffffffffffffff168152602001908152602001600020600082825462000238919062000726565b925050819055508173ffffffffffffffffffffffffffffffffffffffff16600073ffffffffffffffffffffffffffffffffffffffff167fddf252ad1be2c89b69c2b068fc378daa952ba7f163c4a11628f55a4df523b3ef836040516200029f9190620006f8565b60405180910390a3620002bb60008383620003a760201b60201c565b5050565b600073ffffffffffffffffffffffffffffffffffffffff168373ffffffffffffffffffffffffffffffffffffffff16141580156200032957503073ffffffffffffffffffffffffffffffffffffffff168373ffffffffffffffffffffffffffffffffffffffff1614155b15620003a2576200034083620003ac60201b60201c565b62000351846200055d60201b60201c565b6200035d91906200097c565b8110620003a1576040517f08c379a00000000000000000000000000000000000000000000000000000000081526004016200039890620006b4565b60405180910390fd5b5b505050565b505050565b6000806000905060005b600760008573ffffffffffffffffffffffffffffffffffffffff1673ffffffffffffffffffffffffffffffffffffffff1681526020019081526020016000208054905081101562000553574262093a80600760008773ffffffffffffffffffffffffffffffffffffffff1673ffffffffffffffffffffffffffffffffffffffff16815260200190815260200160002083815481106200047e577f4e487b7100000000000000000000000000000000000000000000000000000000600052603260045260246000fd5b9060005260206000209060020201600001546200049c919062000726565b11156200053d57600760008573ffffffffffffffffffffffffffffffffffffffff1673ffffffffffffffffffffffffffffffffffffffff16815260200190815260200160002081815481106200051b577f4e487b7100000000000000000000000000000000000000000000000000000000600052603260045260246000fd5b906000526020600020906002020160010154826200053a919062000726565b91505b80806200054a9062000a04565b915050620003b6565b5080915050919050565b60008060008373ffffffffffffffffffffffffffffffffffffffff1673ffffffffffffffffffffffffffffffffffffffff168152602001908152602001600020549050919050565b828054620005b390620009ce565b90600052602060002090601f016020900481019282620005d7576000855562000623565b82601f10620005f257805160ff191683800117855562000623565b8280016001018555821562000623579182015b828111156200062257825182559160200191906001019062000605565b5b50905062000632919062000636565b5090565b5b808211156200065157600081600090555060010162000637565b5090565b600062000664601b8362000715565b9150620006718262000abd565b602082019050919050565b60006200068b601f8362000715565b9150620006988262000ae6565b602082019050919050565b620006ae81620009b7565b82525050565b60006020820190508181036000830152620006cf8162000655565b9050919050565b60006020820190508181036000830152620006f1816200067c565b9050919050565b60006020820190506200070f6000830184620006a3565b92915050565b600082825260208201905092915050565b60006200073382620009b7565b91506200074083620009b7565b9250827fffffffffffffffffffffffffffffffffffffffffffffffffffffffffffffffff0382111562000778576200077762000a52565b5b828201905092915050565b6000808291508390505b6001851115620007d557808604811115620007ad57620007ac62000a52565b5b6001851615620007bd5780820291505b8081029050620007cd8562000ab0565b94506200078d565b94509492505050565b6000620007eb82620009b7565b9150620007f883620009c1565b9250620008277fffffffffffffffffffffffffffffffffffffffffffffffffffffffffffffffff84846200082f565b905092915050565b60008262000841576001905062000914565b8162000851576000905062000914565b81600181146200086a57600281146200087557620008ab565b600191505062000914565b60ff8411156200088a576200088962000a52565b5b8360020a915084821115620008a457620008a362000a52565b5b5062000914565b5060208310610133831016604e8410600b8410161715620008e55782820a905083811115620008df57620008de62000a52565b5b62000914565b620008f4848484600162000783565b925090508184048111156200090e576200090d62000a52565b5b81810290505b9392505050565b60006200092882620009b7565b91506200093583620009b7565b9250817fffffffffffffffffffffffffffffffffffffffffffffffffffffffffffffffff048311821515161562000971576200097062000a52565b5b828202905092915050565b60006200098982620009b7565b91506200099683620009b7565b925082821015620009ac57620009ab62000a52565b5b828203905092915050565b6000819050919050565b600060ff82169050919050565b60006002820490506001821680620009e757607f821691505b60208210811415620009fe57620009fd62000a81565b5b50919050565b600062000a1182620009b7565b91507fffffffffffffffffffffffffffffffffffffffffffffffffffffffffffffffff82141562000a475762000a4662000a52565b5b600182019050919050565b7f4e487b7100000000000000000000000000000000000000000000000000000000600052601160045260246000fd5b7f4e487b7100000000000000000000000000000000000000000000000000000000600052602260045260246000fd5b60008160011c9050919050565b7f4e6f7420656e6f75676820617661696c61626c6520746f6b656e730000000000600082015250565b7f45524332303a206d696e7420746f20746865207a65726f206164647265737300600082015250565b6120608062000b1f6000396000f3fe6080604052600436106100f35760003560e01c80635d375fe41161008a578063a6f2ae3a11610059578063a6f2ae3a14610352578063a9059cbb1461035c578063ce14f32414610399578063dd62ed3e146103c4576100f3565b80635d375fe41461027057806370a08231146102ad57806395d89b41146102ea578063a457c2d714610315576100f3565b806323b872dd116100c657806323b872dd146101a2578063313ce567146101df578063395093511461020a5780635990bff314610247576100f3565b806306fdde03146100f8578063095ea7b3146101235780630ed679c41461016057806318160ddd14610177575b600080fd5b34801561010457600080fd5b5061010d610401565b60405161011a9190611787565b60405180910390f35b34801561012f57600080fd5b5061014a60048036038101906101459190611520565b610493565b604051610157919061176c565b60405180910390f35b34801561016c57600080fd5b506101756104b6565b005b34801561018357600080fd5b5061018c61058b565b6040516101999190611909565b60405180910390f35b3480156101ae57600080fd5b506101c960048036038101906101c491906114d1565b610595565b6040516101d6919061176c565b60405180910390f35b3480156101eb57600080fd5b506101f46105c4565b6040516102019190611924565b60405180910390f35b34801561021657600080fd5b50610231600480360381019061022c9190611520565b6105cd565b60405161023e919061176c565b60405180910390f35b34801561025357600080fd5b5061026e6004803603810190610269919061155c565b610677565b005b34801561027c57600080fd5b506102976004803603810190610292919061146c565b6106a2565b6040516102a49190611909565b60405180910390f35b3480156102b957600080fd5b506102d460048036038101906102cf919061146c565b610848565b6040516102e19190611909565b60405180910390f35b3480156102f657600080fd5b506102ff610890565b60405161030c9190611787565b60405180910390f35b34801561032157600080fd5b5061033c60048036038101906103379190611520565b610922565b604051610349919061176c565b60405180910390f35b61035a610a0c565b005b34801561036857600080fd5b50610383600480360381019061037e9190611520565b610b70565b604051610390919061176c565b60405180910390f35b3480156103a557600080fd5b506103ae610b93565b6040516103bb919061176c565b60405180910390f35b3480156103d057600080fd5b506103eb60048036038101906103e69190611495565b610ca5565b6040516103f89190611909565b60405180910390f35b60606003805461041090611c38565b80601f016020809104026020016040519081016040528092919081815260200182805461043c90611c38565b80156104895780601f1061045e57610100808354040283529160200191610489565b820191906000526020600020905b81548152906001019060200180831161046c57829003601f168201915b5050505050905090565b60008061049e610d2c565b90506104ab818585610d34565b600191505092915050565b600560009054906101000a900473ffffffffffffffffffffffffffffffffffffffff1673ffffffffffffffffffffffffffffffffffffffff163373ffffffffffffffffffffffffffffffffffffffff161461051057600080fd5b6000600560009054906101000a900473ffffffffffffffffffffffffffffffffffffffff1690508073ffffffffffffffffffffffffffffffffffffffff166108fc6006549081150290604051600060405180830381858888f1935050505015801561057f573d6000803e3d6000fd5b50600060068190555050565b6000600254905090565b6000806105a0610d2c565b90506105ad858285610eff565b6105b8858585610f8b565b60019150509392505050565b60006012905090565b6000806105d8610d2c565b905061066c818585600160008673ffffffffffffffffffffffffffffffffffffffff1673ffffffffffffffffffffffffffffffffffffffff16815260200190815260200160002060008973ffffffffffffffffffffffffffffffffffffffff1673ffffffffffffffffffffffffffffffffffffffff16815260200190815260200160002054610667919061195b565b610d34565b600191505092915050565b61069f336106836105c4565b600a61068f9190611a04565b8361069a9190611b22565b61120c565b50565b6000806000905060005b600760008573ffffffffffffffffffffffffffffffffffffffff1673ffffffffffffffffffffffffffffffffffffffff1681526020019081526020016000208054905081101561083e574262093a80600760008773ffffffffffffffffffffffffffffffffffffffff1673ffffffffffffffffffffffffffffffffffffffff1681526020019081526020016000208381548110610772577f4e487b7100000000000000000000000000000000000000000000000000000000600052603260045260246000fd5b90600052602060002090600202016000015461078e919061195b565b111561082b57600760008573ffffffffffffffffffffffffffffffffffffffff1673ffffffffffffffffffffffffffffffffffffffff168152602001908152602001600020818154811061080b577f4e487b7100000000000000000000000000000000000000000000000000000000600052603260045260246000fd5b90600052602060002090600202016001015482610828919061195b565b91505b808061083690611c6a565b9150506106ac565b5080915050919050565b60008060008373ffffffffffffffffffffffffffffffffffffffff1673ffffffffffffffffffffffffffffffffffffffff168152602001908152602001600020549050919050565b60606004805461089f90611c38565b80601f01602080910402602001604051908101604052809291908181526020018280546108cb90611c38565b80156109185780601f106108ed57610100808354040283529160200191610918565b820191906000526020600020905b8154815290600101906020018083116108fb57829003601f168201915b5050505050905090565b60008061092d610d2c565b90506000600160008373ffffffffffffffffffffffffffffffffffffffff1673ffffffffffffffffffffffffffffffffffffffff16815260200190815260200160002060008673ffffffffffffffffffffffffffffffffffffffff1673ffffffffffffffffffffffffffffffffffffffff168152602001908152602001600020549050838110156109f3576040517f08c379a00000000000000000000000000000000000000000000000000000000081526004016109ea906118c9565b60405180910390fd5b610a008286868403610d34565b60019250505092915050565b6000606434610a1b9190611b22565b905080610a2730610848565b1015610a68576040517f08c379a0000000000000000000000000000000000000000000000000000000008152600401610a5f906118a9565b60405180910390fd5b60001515610a74610b93565b151514610ab6576040517f08c379a0000000000000000000000000000000000000000000000000000000008152600401610aad90611889565b60405180910390fd5b600760003373ffffffffffffffffffffffffffffffffffffffff1673ffffffffffffffffffffffffffffffffffffffff168152602001908152602001600020604051806040016040528042815260200183815250908060018154018082558091505060019003906000526020600020906002020160009091909190915060008201518160000155602082015181600101555050610b54303383610f8b565b3460066000828254610b66919061195b565b9250508190555050565b600080610b7b610d2c565b9050610b88818585610f8b565b600191505092915050565b6000806000905060005b600760003373ffffffffffffffffffffffffffffffffffffffff1673ffffffffffffffffffffffffffffffffffffffff16815260200190815260200160002080549050811015610c9d574262093a80600760003373ffffffffffffffffffffffffffffffffffffffff1673ffffffffffffffffffffffffffffffffffffffff1681526020019081526020016000208381548110610c63577f4e487b7100000000000000000000000000000000000000000000000000000000600052603260045260246000fd5b906000526020600020906002020160000154610c7f919061195b565b1115610c8a57600191505b8080610c9590611c6a565b915050610b9d565b508091505090565b6000600160008473ffffffffffffffffffffffffffffffffffffffff1673ffffffffffffffffffffffffffffffffffffffff16815260200190815260200160002060008373ffffffffffffffffffffffffffffffffffffffff1673ffffffffffffffffffffffffffffffffffffffff16815260200190815260200160002054905092915050565b600033905090565b600073ffffffffffffffffffffffffffffffffffffffff168373ffffffffffffffffffffffffffffffffffffffff161415610da4576040517f08c379a0000000000000000000000000000000000000000000000000000000008152600401610d9b90611869565b60405180910390fd5b600073ffffffffffffffffffffffffffffffffffffffff168273ffffffffffffffffffffffffffffffffffffffff161415610e14576040517f08c379a0000000000000000000000000000000000000000000000000000000008152600401610e0b906117c9565b60405180910390fd5b80600160008573ffffffffffffffffffffffffffffffffffffffff1673ffffffffffffffffffffffffffffffffffffffff16815260200190815260200160002060008473ffffffffffffffffffffffffffffffffffffffff1673ffffffffffffffffffffffffffffffffffffffff168152602001908152602001600020819055508173ffffffffffffffffffffffffffffffffffffffff168373ffffffffffffffffffffffffffffffffffffffff167f8c5be1e5ebec7d5bd14f71427d1e84f3dd0314c0f7b2291e5b200ac8c7c3b92583604051610ef29190611909565b60405180910390a3505050565b6000610f0b8484610ca5565b90507fffffffffffffffffffffffffffffffffffffffffffffffffffffffffffffffff8114610f855781811015610f77576040517f08c379a0000000000000000000000000000000000000000000000000000000008152600401610f6e906117e9565b60405180910390fd5b610f848484848403610d34565b5b50505050565b600073ffffffffffffffffffffffffffffffffffffffff168373ffffffffffffffffffffffffffffffffffffffff161415610ffb576040517f08c379a0000000000000000000000000000000000000000000000000000000008152600401610ff290611849565b60405180910390fd5b600073ffffffffffffffffffffffffffffffffffffffff168273ffffffffffffffffffffffffffffffffffffffff16141561106b576040517f08c379a0000000000000000000000000000000000000000000000000000000008152600401611062906117a9565b60405180910390fd5b61107683838361136c565b60008060008573ffffffffffffffffffffffffffffffffffffffff1673ffffffffffffffffffffffffffffffffffffffff168152602001908152602001600020549050818110156110fc576040517f08c379a00000000000000000000000000000000000000000000000000000000081526004016110f390611809565b60405180910390fd5b8181036000808673ffffffffffffffffffffffffffffffffffffffff1673ffffffffffffffffffffffffffffffffffffffff16815260200190815260200160002081905550816000808573ffffffffffffffffffffffffffffffffffffffff1673ffffffffffffffffffffffffffffffffffffffff168152602001908152602001600020600082825461118f919061195b565b925050819055508273ffffffffffffffffffffffffffffffffffffffff168473ffffffffffffffffffffffffffffffffffffffff167fddf252ad1be2c89b69c2b068fc378daa952ba7f163c4a11628f55a4df523b3ef846040516111f39190611909565b60405180910390a361120684848461143d565b50505050565b600073ffffffffffffffffffffffffffffffffffffffff168273ffffffffffffffffffffffffffffffffffffffff16141561127c576040517f08c379a0000000000000000000000000000000000000000000000000000000008152600401611273906118e9565b60405180910390fd5b6112886000838361136c565b806002600082825461129a919061195b565b92505081905550806000808473ffffffffffffffffffffffffffffffffffffffff1673ffffffffffffffffffffffffffffffffffffffff16815260200190815260200160002060008282546112ef919061195b565b925050819055508173ffffffffffffffffffffffffffffffffffffffff16600073ffffffffffffffffffffffffffffffffffffffff167fddf252ad1be2c89b69c2b068fc378daa952ba7f163c4a11628f55a4df523b3ef836040516113549190611909565b60405180910390a36113686000838361143d565b5050565b600073ffffffffffffffffffffffffffffffffffffffff168373ffffffffffffffffffffffffffffffffffffffff16141580156113d557503073ffffffffffffffffffffffffffffffffffffffff168373ffffffffffffffffffffffffffffffffffffffff1614155b15611438576113e3836106a2565b6113ec84610848565b6113f69190611b7c565b8110611437576040517f08c379a000000000000000000000000000000000000000000000000000000000815260040161142e90611829565b60405180910390fd5b5b505050565b505050565b60008135905061145181611ffc565b92915050565b60008135905061146681612013565b92915050565b60006020828403121561147e57600080fd5b600061148c84828501611442565b91505092915050565b600080604083850312156114a857600080fd5b60006114b685828601611442565b92505060206114c785828601611442565b9150509250929050565b6000806000606084860312156114e657600080fd5b60006114f486828701611442565b935050602061150586828701611442565b925050604061151686828701611457565b9150509250925092565b6000806040838503121561153357600080fd5b600061154185828601611442565b925050602061155285828601611457565b9150509250929050565b60006020828403121561156e57600080fd5b600061157c84828501611457565b91505092915050565b61158e81611bc2565b82525050565b600061159f8261193f565b6115a9818561194a565b93506115b9818560208601611c05565b6115c281611d11565b840191505092915050565b60006115da60238361194a565b91506115e582611d2f565b604082019050919050565b60006115fd60228361194a565b915061160882611d7e565b604082019050919050565b6000611620601d8361194a565b915061162b82611dcd565b602082019050919050565b600061164360268361194a565b915061164e82611df6565b604082019050919050565b6000611666601b8361194a565b915061167182611e45565b602082019050919050565b600061168960258361194a565b915061169482611e6e565b604082019050919050565b60006116ac60248361194a565b91506116b782611ebd565b604082019050919050565b60006116cf60288361194a565b91506116da82611f0c565b604082019050919050565b60006116f260148361194a565b91506116fd82611f5b565b602082019050919050565b600061171560258361194a565b915061172082611f84565b604082019050919050565b6000611738601f8361194a565b915061174382611fd3565b602082019050919050565b61175781611bee565b82525050565b61176681611bf8565b82525050565b60006020820190506117816000830184611585565b92915050565b600060208201905081810360008301526117a18184611594565b905092915050565b600060208201905081810360008301526117c2816115cd565b9050919050565b600060208201905081810360008301526117e2816115f0565b9050919050565b6000602082019050818103600083015261180281611613565b9050919050565b6000602082019050818103600083015261182281611636565b9050919050565b6000602082019050818103600083015261184281611659565b9050919050565b600060208201905081810360008301526118628161167c565b9050919050565b600060208201905081810360008301526118828161169f565b9050919050565b600060208201905081810360008301526118a2816116c2565b9050919050565b600060208201905081810360008301526118c2816116e5565b9050919050565b600060208201905081810360008301526118e281611708565b9050919050565b600060208201905081810360008301526119028161172b565b9050919050565b600060208201905061191e600083018461174e565b92915050565b6000602082019050611939600083018461175d565b92915050565b600081519050919050565b600082825260208201905092915050565b600061196682611bee565b915061197183611bee565b9250827fffffffffffffffffffffffffffffffffffffffffffffffffffffffffffffffff038211156119a6576119a5611cb3565b5b828201905092915050565b6000808291508390505b60018511156119fb578086048111156119d7576119d6611cb3565b5b60018516156119e65780820291505b80810290506119f485611d22565b94506119bb565b94509492505050565b6000611a0f82611bee565b9150611a1a83611bf8565b9250611a477fffffffffffffffffffffffffffffffffffffffffffffffffffffffffffffffff8484611a4f565b905092915050565b600082611a5f5760019050611b1b565b81611a6d5760009050611b1b565b8160018114611a835760028114611a8d57611abc565b6001915050611b1b565b60ff841115611a9f57611a9e611cb3565b5b8360020a915084821115611ab657611ab5611cb3565b5b50611b1b565b5060208310610133831016604e8410600b8410161715611af15782820a905083811115611aec57611aeb611cb3565b5b611b1b565b611afe84848460016119b1565b92509050818404811115611b1557611b14611cb3565b5b81810290505b9392505050565b6000611b2d82611bee565b9150611b3883611bee565b9250817fffffffffffffffffffffffffffffffffffffffffffffffffffffffffffffffff0483118215151615611b7157611b70611cb3565b5b828202905092915050565b6000611b8782611bee565b9150611b9283611bee565b925082821015611ba557611ba4611cb3565b5b828203905092915050565b6000611bbb82611bce565b9050919050565b60008115159050919050565b600073ffffffffffffffffffffffffffffffffffffffff82169050919050565b6000819050919050565b600060ff82169050919050565b60005b83811015611c23578082015181840152602081019050611c08565b83811115611c32576000848401525b50505050565b60006002820490506001821680611c5057607f821691505b60208210811415611c6457611c63611ce2565b5b50919050565b6000611c7582611bee565b91507fffffffffffffffffffffffffffffffffffffffffffffffffffffffffffffffff821415611ca857611ca7611cb3565b5b600182019050919050565b7f4e487b7100000000000000000000000000000000000000000000000000000000600052601160045260246000fd5b7f4e487b7100000000000000000000000000000000000000000000000000000000600052602260045260246000fd5b6000601f19601f8301169050919050565b60008160011c9050919050565b7f45524332303a207472616e7366657220746f20746865207a65726f206164647260008201527f6573730000000000000000000000000000000000000000000000000000000000602082015250565b7f45524332303a20617070726f766520746f20746865207a65726f20616464726560008201527f7373000000000000000000000000000000000000000000000000000000000000602082015250565b7f45524332303a20696e73756666696369656e7420616c6c6f77616e6365000000600082015250565b7f45524332303a207472616e7366657220616d6f756e742065786365656473206260008201527f616c616e63650000000000000000000000000000000000000000000000000000602082015250565b7f4e6f7420656e6f75676820617661696c61626c6520746f6b656e730000000000600082015250565b7f45524332303a207472616e736665722066726f6d20746865207a65726f20616460008201527f6472657373000000000000000000000000000000000000000000000000000000602082015250565b7f45524332303a20617070726f76652066726f6d20746865207a65726f2061646460008201527f7265737300000000000000000000000000000000000000000000000000000000602082015250565b7f546f6b656e20616c726561647920626f7567687420696e206c6573732074686160008201527f6e2061207765656b000000000000000000000000000000000000000000000000602082015250565b7f546f6b656e206c696d6974206578636565646564000000000000000000000000600082015250565b7f45524332303a2064656372656173656420616c6c6f77616e63652062656c6f7760008201527f207a65726f000000000000000000000000000000000000000000000000000000602082015250565b7f45524332303a206d696e7420746f20746865207a65726f206164647265737300600082015250565b61200581611bb0565b811461201057600080fd5b50565b61201c81611bee565b811461202757600080fd5b5056fea2646970667358221220b11f3bfce3184373e0e92a8441cea447fdf4166ef70471b42c6d7312656ce36964736f6c63430008040033",
  "linkReferences": {},
  "deployedLinkReferences": {}
}