{
  "_format": "hh-sol-artifact-1",
  "contractName": "Marketplace",
  "sourceName": "contracts/LecodeToken.sol",
  "abi": [
    {
      "inputs": [
        {
          "internalType": "address",
          "name": "_LEO",
          "type": "address"
        },
        {
          "internalType": "address",
          "name": "_USDT",
          "type": "address"
        },
        {
          "internalType": "address",
          "name": "_nft",
          "type": "address"
        }
      ],
      "stateMutability": "nonpayable",
      "type": "constructor"
    },
    {
      "inputs": [
        {
          "internalType": "uint256",
          "name": "_amount",
          "type": "uint256"
        }
      ],
      "name": "buyLEOForUSDT",
      "outputs": [],
      "stateMutability": "nonpayable",
      "type": "function"
    },
    {
      "inputs": [
        {
          "internalType": "uint256",
          "name": "_id",
          "type": "uint256"
        }
      ],
      "name": "buyNFTForLEO",
      "outputs": [],
      "stateMutability": "nonpayable",
      "type": "function"
    },
    {
      "inputs": [
        {
          "internalType": "uint256",
          "name": "_id",
          "type": "uint256"
        }
      ],
      "name": "buyNFTForUSDT",
      "outputs": [],
      "stateMutability": "nonpayable",
      "type": "function"
    },
    {
      "inputs": [
        {
          "internalType": "address",
          "name": "",
          "type": "address"
        },
        {
          "internalType": "address",
          "name": "",
          "type": "address"
        },
        {
          "internalType": "uint256[]",
          "name": "",
          "type": "uint256[]"
        },
        {
          "internalType": "uint256[]",
          "name": "",
          "type": "uint256[]"
        },
        {
          "internalType": "bytes",
          "name": "",
          "type": "bytes"
        }
      ],
      "name": "onERC1155BatchReceived",
      "outputs": [
        {
          "internalType": "bytes4",
          "name": "",
          "type": "bytes4"
        }
      ],
      "stateMutability": "nonpayable",
      "type": "function"
    },
    {
      "inputs": [
        {
          "internalType": "address",
          "name": "",
          "type": "address"
        },
        {
          "internalType": "address",
          "name": "",
          "type": "address"
        },
        {
          "internalType": "uint256",
          "name": "",
          "type": "uint256"
        },
        {
          "internalType": "uint256",
          "name": "",
          "type": "uint256"
        },
        {
          "internalType": "bytes",
          "name": "",
          "type": "bytes"
        }
      ],
      "name": "onERC1155Received",
      "outputs": [
        {
          "internalType": "bytes4",
          "name": "",
          "type": "bytes4"
        }
      ],
      "stateMutability": "nonpayable",
      "type": "function"
    },
    {
      "inputs": [],
      "name": "owner",
      "outputs": [
        {
          "internalType": "address",
          "name": "",
          "type": "address"
        }
      ],
      "stateMutability": "view",
      "type": "function"
    },
    {
      "inputs": [
        {
          "internalType": "uint256",
          "name": "_amount",
          "type": "uint256"
        }
      ],
      "name": "sellLEOForUSDT",
      "outputs": [],
      "stateMutability": "nonpayable",
      "type": "function"
    },
    {
      "inputs": [
        {
          "internalType": "uint256",
          "name": "_id",
          "type": "uint256"
        }
      ],
      "name": "sellNFTForLEO",
      "outputs": [],
      "stateMutability": "nonpayable",
      "type": "function"
    },
    {
      "inputs": [
        {
          "internalType": "uint256",
          "name": "_id",
          "type": "uint256"
        }
      ],
      "name": "sellNFTForUSDT",
      "outputs": [],
      "stateMutability": "nonpayable",
      "type": "function"
    },
    {
      "inputs": [
        {
          "internalType": "bytes4",
          "name": "interfaceId",
          "type": "bytes4"
        }
      ],
      "name": "supportsInterface",
      "outputs": [
        {
          "internalType": "bool",
          "name": "",
          "type": "bool"
        }
      ],
      "stateMutability": "view",
      "type": "function"
    }
  ],
  "bytecode": "0x60806040523480156200001157600080fd5b50604051620017d1380380620017d183398181016040528101906200003791906200015a565b826000806101000a81548173ffffffffffffffffffffffffffffffffffffffff021916908373ffffffffffffffffffffffffffffffffffffffff16021790555081600160006101000a81548173ffffffffffffffffffffffffffffffffffffffff021916908373ffffffffffffffffffffffffffffffffffffffff16021790555080600260006101000a81548173ffffffffffffffffffffffffffffffffffffffff021916908373ffffffffffffffffffffffffffffffffffffffff16021790555033600360006101000a81548173ffffffffffffffffffffffffffffffffffffffff021916908373ffffffffffffffffffffffffffffffffffffffff160217905550505050620001fe565b6000815190506200015481620001e4565b92915050565b6000806000606084860312156200017057600080fd5b6000620001808682870162000143565b9350506020620001938682870162000143565b9250506040620001a68682870162000143565b9150509250925092565b6000620001bd82620001c4565b9050919050565b600073ffffffffffffffffffffffffffffffffffffffff82169050919050565b620001ef81620001b0565b8114620001fb57600080fd5b50565b6115c3806200020e6000396000f3fe608060405234801561001057600080fd5b506004361061009e5760003560e01c8063b831775b11610066578063b831775b14610145578063bc197c8114610161578063c3c8dd8214610191578063d810129a146101ad578063f23a6e61146101c95761009e565b806301ffc9a7146100a357806337d571e1146100d35780635f7d628c146100ef57806378623c781461010b5780638da5cb5b14610127575b600080fd5b6100bd60048036038101906100b89190610fd4565b6101f9565b6040516100ca91906111ad565b60405180910390f35b6100ed60048036038101906100e89190610ffd565b610273565b005b61010960048036038101906101049190610ffd565b6103f3565b005b61012560048036038101906101209190610ffd565b6105e8565b005b61012f6107dd565b60405161013c91906110da565b60405180910390f35b61015f600480360381019061015a9190610ffd565b610803565b005b61017b60048036038101906101769190610e5d565b61097d565b60405161018891906111c8565b60405180910390f35b6101ab60048036038101906101a69190610ffd565b610992565b005b6101c760048036038101906101c29190610ffd565b610b0e565b005b6101e360048036038101906101de9190610f1c565b610c8c565b6040516101f091906111c8565b60405180910390f35b60007f4e2312e0000000000000000000000000000000000000000000000000000000007bffffffffffffffffffffffffffffffffffffffffffffffffffffffff1916827bffffffffffffffffffffffffffffffffffffffffffffffffffffffff1916148061026c575061026b82610ca1565b5b9050919050565b6000680ad78ebc5ac6200000905060008054906101000a900473ffffffffffffffffffffffffffffffffffffffff1673ffffffffffffffffffffffffffffffffffffffff166323b872dd3330846040518463ffffffff1660e01b81526004016102de939291906110f5565b602060405180830381600087803b1580156102f857600080fd5b505af115801561030c573d6000803e3d6000fd5b505050506040513d601f19601f820116820180604052508101906103309190610fab565b61033957600080fd5b600260009054906101000a900473ffffffffffffffffffffffffffffffffffffffff1673ffffffffffffffffffffffffffffffffffffffff1663f242432a600360009054906101000a900473ffffffffffffffffffffffffffffffffffffffff16338560016040518563ffffffff1660e01b81526004016103bd949392919061112c565b600060405180830381600087803b1580156103d757600080fd5b505af11580156103eb573d6000803e3d6000fd5b505050505050565b606464e8d4a510008261040691906112c7565b1015610447576040517f08c379a000000000000000000000000000000000000000000000000000000000815260040161043e906111e3565b60405180910390fd5b60006003606464e8d4a510008461045e91906112c7565b61046891906112c7565b61047291906112f8565b905060008054906101000a900473ffffffffffffffffffffffffffffffffffffffff1673ffffffffffffffffffffffffffffffffffffffff1663a9059cbb33846040518363ffffffff1660e01b81526004016104cf929190611184565b602060405180830381600087803b1580156104e957600080fd5b505af11580156104fd573d6000803e3d6000fd5b505050506040513d601f19601f820116820180604052508101906105219190610fab565b61052a57600080fd5b600160009054906101000a900473ffffffffffffffffffffffffffffffffffffffff1673ffffffffffffffffffffffffffffffffffffffff166323b872dd3330846040518463ffffffff1660e01b8152600401610589939291906110f5565b602060405180830381600087803b1580156105a357600080fd5b505af11580156105b7573d6000803e3d6000fd5b505050506040513d601f19601f820116820180604052508101906105db9190610fab565b6105e457600080fd5b5050565b606464e8d4a51000826105fb91906112c7565b101561063c576040517f08c379a000000000000000000000000000000000000000000000000000000000815260040161063390611203565b60405180910390fd5b60006003606464e8d4a510008461065391906112c7565b61065d91906112c7565b61066791906112f8565b9050600160009054906101000a900473ffffffffffffffffffffffffffffffffffffffff1673ffffffffffffffffffffffffffffffffffffffff1663a9059cbb33836040518363ffffffff1660e01b81526004016106c6929190611184565b602060405180830381600087803b1580156106e057600080fd5b505af11580156106f4573d6000803e3d6000fd5b505050506040513d601f19601f820116820180604052508101906107189190610fab565b61072157600080fd5b60008054906101000a900473ffffffffffffffffffffffffffffffffffffffff1673ffffffffffffffffffffffffffffffffffffffff166323b872dd3330856040518463ffffffff1660e01b815260040161077e939291906110f5565b602060405180830381600087803b15801561079857600080fd5b505af11580156107ac573d6000803e3d6000fd5b505050506040513d601f19601f820116820180604052508101906107d09190610fab565b6107d957600080fd5b5050565b600360009054906101000a900473ffffffffffffffffffffffffffffffffffffffff1681565b60006216e3609050600160009054906101000a900473ffffffffffffffffffffffffffffffffffffffff1673ffffffffffffffffffffffffffffffffffffffff1663a9059cbb33836040518363ffffffff1660e01b8152600401610868929190611184565b602060405180830381600087803b15801561088257600080fd5b505af1158015610896573d6000803e3d6000fd5b505050506040513d601f19601f820116820180604052508101906108ba9190610fab565b6108c357600080fd5b600260009054906101000a900473ffffffffffffffffffffffffffffffffffffffff1673ffffffffffffffffffffffffffffffffffffffff1663f242432a33600360009054906101000a900473ffffffffffffffffffffffffffffffffffffffff168560016040518563ffffffff1660e01b8152600401610947949392919061112c565b600060405180830381600087803b15801561096157600080fd5b505af1158015610975573d6000803e3d6000fd5b505050505050565b600063bc197c8160e01b905095945050505050565b60006216e3609050600160009054906101000a900473ffffffffffffffffffffffffffffffffffffffff1673ffffffffffffffffffffffffffffffffffffffff166323b872dd3330846040518463ffffffff1660e01b81526004016109f9939291906110f5565b602060405180830381600087803b158015610a1357600080fd5b505af1158015610a27573d6000803e3d6000fd5b505050506040513d601f19601f82011682018060405250810190610a4b9190610fab565b610a5457600080fd5b600260009054906101000a900473ffffffffffffffffffffffffffffffffffffffff1673ffffffffffffffffffffffffffffffffffffffff1663f242432a600360009054906101000a900473ffffffffffffffffffffffffffffffffffffffff16338560016040518563ffffffff1660e01b8152600401610ad8949392919061112c565b600060405180830381600087803b158015610af257600080fd5b505af1158015610b06573d6000803e3d6000fd5b505050505050565b6000680ad78ebc5ac6200000905060008054906101000a900473ffffffffffffffffffffffffffffffffffffffff1673ffffffffffffffffffffffffffffffffffffffff1663a9059cbb33836040518363ffffffff1660e01b8152600401610b77929190611184565b602060405180830381600087803b158015610b9157600080fd5b505af1158015610ba5573d6000803e3d6000fd5b505050506040513d601f19601f82011682018060405250810190610bc99190610fab565b610bd257600080fd5b600260009054906101000a900473ffffffffffffffffffffffffffffffffffffffff1673ffffffffffffffffffffffffffffffffffffffff1663f242432a33600360009054906101000a900473ffffffffffffffffffffffffffffffffffffffff168560016040518563ffffffff1660e01b8152600401610c56949392919061112c565b600060405180830381600087803b158015610c7057600080fd5b505af1158015610c84573d6000803e3d6000fd5b505050505050565b600063f23a6e6160e01b905095945050505050565b60007f01ffc9a7000000000000000000000000000000000000000000000000000000007bffffffffffffffffffffffffffffffffffffffffffffffffffffffff1916827bffffffffffffffffffffffffffffffffffffffffffffffffffffffff1916149050919050565b6000610d1e610d1984611248565b611223565b90508083825260208201905082856020860282011115610d3d57600080fd5b60005b85811015610d6d5781610d538882610e48565b845260208401935060208301925050600181019050610d40565b5050509392505050565b6000610d8a610d8584611274565b611223565b905082815260208101848484011115610da257600080fd5b610dad8482856113d8565b509392505050565b600081359050610dc481611531565b92915050565b600082601f830112610ddb57600080fd5b8135610deb848260208601610d0b565b91505092915050565b600081519050610e0381611548565b92915050565b600081359050610e188161155f565b92915050565b600082601f830112610e2f57600080fd5b8135610e3f848260208601610d77565b91505092915050565b600081359050610e5781611576565b92915050565b600080600080600060a08688031215610e7557600080fd5b6000610e8388828901610db5565b9550506020610e9488828901610db5565b945050604086013567ffffffffffffffff811115610eb157600080fd5b610ebd88828901610dca565b935050606086013567ffffffffffffffff811115610eda57600080fd5b610ee688828901610dca565b925050608086013567ffffffffffffffff811115610f0357600080fd5b610f0f88828901610e1e565b9150509295509295909350565b600080600080600060a08688031215610f3457600080fd5b6000610f4288828901610db5565b9550506020610f5388828901610db5565b9450506040610f6488828901610e48565b9350506060610f7588828901610e48565b925050608086013567ffffffffffffffff811115610f9257600080fd5b610f9e88828901610e1e565b9150509295509295909350565b600060208284031215610fbd57600080fd5b6000610fcb84828501610df4565b91505092915050565b600060208284031215610fe657600080fd5b6000610ff484828501610e09565b91505092915050565b60006020828403121561100f57600080fd5b600061101d84828501610e48565b91505092915050565b61102f81611352565b82525050565b61103e81611364565b82525050565b61104d81611370565b82525050565b61105c816113c6565b82525050565b600061106f601e836112b6565b915061107a826114b6565b602082019050919050565b60006110926005836112a5565b915061109d826114df565b602082019050919050565b60006110b5601f836112b6565b91506110c082611508565b602082019050919050565b6110d4816113bc565b82525050565b60006020820190506110ef6000830184611026565b92915050565b600060608201905061110a6000830186611026565b6111176020830185611026565b61112460408301846110cb565b949350505050565b600060a0820190506111416000830187611026565b61114e6020830186611026565b61115b60408301856110cb565b6111686060830184611053565b818103608083015261117981611085565b905095945050505050565b60006040820190506111996000830185611026565b6111a660208301846110cb565b9392505050565b60006020820190506111c26000830184611035565b92915050565b60006020820190506111dd6000830184611044565b92915050565b600060208201905081810360008301526111fc81611062565b9050919050565b6000602082019050818103600083015261121c816110a8565b9050919050565b600061122d61123e565b905061123982826113e7565b919050565b6000604051905090565b600067ffffffffffffffff82111561126357611262611476565b5b602082029050602081019050919050565b600067ffffffffffffffff82111561128f5761128e611476565b5b611298826114a5565b9050602081019050919050565b600082825260208201905092915050565b600082825260208201905092915050565b60006112d2826113bc565b91506112dd836113bc565b9250826112ed576112ec611447565b5b828204905092915050565b6000611303826113bc565b915061130e836113bc565b9250817fffffffffffffffffffffffffffffffffffffffffffffffffffffffffffffffff048311821515161561134757611346611418565b5b828202905092915050565b600061135d8261139c565b9050919050565b60008115159050919050565b60007fffffffff0000000000000000000000000000000000000000000000000000000082169050919050565b600073ffffffffffffffffffffffffffffffffffffffff82169050919050565b6000819050919050565b60006113d1826113bc565b9050919050565b82818337600083830152505050565b6113f0826114a5565b810181811067ffffffffffffffff8211171561140f5761140e611476565b5b80604052505050565b7f4e487b7100000000000000000000000000000000000000000000000000000000600052601160045260246000fd5b7f4e487b7100000000000000000000000000000000000000000000000000000000600052601260045260246000fd5b7f4e487b7100000000000000000000000000000000000000000000000000000000600052604160045260246000fd5b6000601f19601f8301169050919050565b7f4d696e696d616c20616d6f756e7420746f206275792069732031305e31340000600082015250565b7f3078313233000000000000000000000000000000000000000000000000000000600082015250565b7f4d696e696d616c20616d6f756e7420746f2073656c6c2069732031305e313400600082015250565b61153a81611352565b811461154557600080fd5b50565b61155181611364565b811461155c57600080fd5b50565b61156881611370565b811461157357600080fd5b50565b61157f816113bc565b811461158a57600080fd5b5056fea26469706673582212206079379b9d8c7a5bcc6e0f6d8a4e17dcef16c05141dd0fe137456296daa17f9b64736f6c63430008040033",
  "linkReferences": {},
  "deployedLinkReferences": {}
}