{
  "_format": "hh-sol-artifact-1",
  "contractName": "USDT",
  "sourceName": "contracts/LecodeToken.sol",
  "abi": [
    {
      "inputs": [],
      "stateMutability": "nonpayable",
      "type": "constructor"
    },
    {
      "anonymous": false,
      "inputs": [
        {
          "indexed": true,
          "internalType": "address",
          "name": "owner",
          "type": "address"
        },
        {
          "indexed": true,
          "internalType": "address",
          "name": "spender",
          "type": "address"
        },
        {
          "indexed": false,
          "internalType": "uint256",
          "name": "value",
          "type": "uint256"
        }
      ],
      "name": "Approval",
      "type": "event"
    },
    {
      "anonymous": false,
      "inputs": [
        {
          "indexed": true,
          "internalType": "address",
          "name": "from",
          "type": "address"
        },
        {
          "indexed": true,
          "internalType": "address",
          "name": "to",
          "type": "address"
        },
        {
          "indexed": false,
          "internalType": "uint256",
          "name": "value",
          "type": "uint256"
        }
      ],
      "name": "Transfer",
      "type": "event"
    },
    {
      "inputs": [
        {
          "internalType": "address",
          "name": "owner",
          "type": "address"
        },
        {
          "internalType": "address",
          "name": "spender",
          "type": "address"
        }
      ],
      "name": "allowance",
      "outputs": [
        {
          "internalType": "uint256",
          "name": "",
          "type": "uint256"
        }
      ],
      "stateMutability": "view",
      "type": "function"
    },
    {
      "inputs": [
        {
          "internalType": "address",
          "name": "spender",
          "type": "address"
        },
        {
          "internalType": "uint256",
          "name": "amount",
          "type": "uint256"
        }
      ],
      "name": "approve",
      "outputs": [
        {
          "internalType": "bool",
          "name": "",
          "type": "bool"
        }
      ],
      "stateMutability": "nonpayable",
      "type": "function"
    },
    {
      "inputs": [
        {
          "internalType": "address",
          "name": "account",
          "type": "address"
        }
      ],
      "name": "balanceOf",
      "outputs": [
        {
          "internalType": "uint256",
          "name": "",
          "type": "uint256"
        }
      ],
      "stateMutability": "view",
      "type": "function"
    },
    {
      "inputs": [],
      "name": "decimals",
      "outputs": [
        {
          "internalType": "uint8",
          "name": "",
          "type": "uint8"
        }
      ],
      "stateMutability": "view",
      "type": "function"
    },
    {
      "inputs": [
        {
          "internalType": "address",
          "name": "spender",
          "type": "address"
        },
        {
          "internalType": "uint256",
          "name": "subtractedValue",
          "type": "uint256"
        }
      ],
      "name": "decreaseAllowance",
      "outputs": [
        {
          "internalType": "bool",
          "name": "",
          "type": "bool"
        }
      ],
      "stateMutability": "nonpayable",
      "type": "function"
    },
    {
      "inputs": [
        {
          "internalType": "uint256",
          "name": "_amount",
          "type": "uint256"
        }
      ],
      "name": "gimme",
      "outputs": [],
      "stateMutability": "nonpayable",
      "type": "function"
    },
    {
      "inputs": [
        {
          "internalType": "address",
          "name": "spender",
          "type": "address"
        },
        {
          "internalType": "uint256",
          "name": "addedValue",
          "type": "uint256"
        }
      ],
      "name": "increaseAllowance",
      "outputs": [
        {
          "internalType": "bool",
          "name": "",
          "type": "bool"
        }
      ],
      "stateMutability": "nonpayable",
      "type": "function"
    },
    {
      "inputs": [],
      "name": "name",
      "outputs": [
        {
          "internalType": "string",
          "name": "",
          "type": "string"
        }
      ],
      "stateMutability": "view",
      "type": "function"
    },
    {
      "inputs": [],
      "name": "symbol",
      "outputs": [
        {
          "internalType": "string",
          "name": "",
          "type": "string"
        }
      ],
      "stateMutability": "view",
      "type": "function"
    },
    {
      "inputs": [],
      "name": "totalSupply",
      "outputs": [
        {
          "internalType": "uint256",
          "name": "",
          "type": "uint256"
        }
      ],
      "stateMutability": "view",
      "type": "function"
    },
    {
      "inputs": [
        {
          "internalType": "address",
          "name": "to",
          "type": "address"
        },
        {
          "internalType": "uint256",
          "name": "amount",
          "type": "uint256"
        }
      ],
      "name": "transfer",
      "outputs": [
        {
          "internalType": "bool",
          "name": "",
          "type": "bool"
        }
      ],
      "stateMutability": "nonpayable",
      "type": "function"
    },
    {
      "inputs": [
        {
          "internalType": "address",
          "name": "from",
          "type": "address"
        },
        {
          "internalType": "address",
          "name": "to",
          "type": "address"
        },
        {
          "internalType": "uint256",
          "name": "amount",
          "type": "uint256"
        }
      ],
      "name": "transferFrom",
      "outputs": [
        {
          "internalType": "bool",
          "name": "",
          "type": "bool"
        }
      ],
      "stateMutability": "nonpayable",
      "type": "function"
    }
  ],
  "bytecode": "0x60806040523480156200001157600080fd5b506040518060400160405280600981526020017f55534420546f6b656e00000000000000000000000000000000000000000000008152506040518060400160405280600481526020017f5553445400000000000000000000000000000000000000000000000000000000815250816003908051906020019062000096929190620000b8565b508060049080519060200190620000af929190620000b8565b505050620001cd565b828054620000c69062000168565b90600052602060002090601f016020900481019282620000ea576000855562000136565b82601f106200010557805160ff191683800117855562000136565b8280016001018555821562000136579182015b828111156200013557825182559160200191906001019062000118565b5b50905062000145919062000149565b5090565b5b80821115620001645760008160009055506001016200014a565b5090565b600060028204905060018216806200018157607f821691505b602082108114156200019857620001976200019e565b5b50919050565b7f4e487b7100000000000000000000000000000000000000000000000000000000600052602260045260246000fd5b61175880620001dd6000396000f3fe608060405234801561001057600080fd5b50600436106100b45760003560e01c80635990bff3116100715780635990bff3146101a357806370a08231146101bf57806395d89b41146101ef578063a457c2d71461020d578063a9059cbb1461023d578063dd62ed3e1461026d576100b4565b806306fdde03146100b9578063095ea7b3146100d757806318160ddd1461010757806323b872dd14610125578063313ce567146101555780633950935114610173575b600080fd5b6100c161029d565b6040516100ce9190610ffd565b60405180910390f35b6100f160048036038101906100ec9190610dff565b61032f565b6040516100fe9190610fe2565b60405180910390f35b61010f610352565b60405161011c919061111f565b60405180910390f35b61013f600480360381019061013a9190610db0565b61035c565b60405161014c9190610fe2565b60405180910390f35b61015d61038b565b60405161016a919061113a565b60405180910390f35b61018d60048036038101906101889190610dff565b610394565b60405161019a9190610fe2565b60405180910390f35b6101bd60048036038101906101b89190610e3b565b61043e565b005b6101d960048036038101906101d49190610d4b565b610469565b6040516101e6919061111f565b60405180910390f35b6101f76104b1565b6040516102049190610ffd565b60405180910390f35b61022760048036038101906102229190610dff565b610543565b6040516102349190610fe2565b60405180910390f35b61025760048036038101906102529190610dff565b61062d565b6040516102649190610fe2565b60405180910390f35b61028760048036038101906102829190610d74565b610650565b604051610294919061111f565b60405180910390f35b6060600380546102ac9061141a565b80601f01602080910402602001604051908101604052809291908181526020018280546102d89061141a565b80156103255780601f106102fa57610100808354040283529160200191610325565b820191906000526020600020905b81548152906001019060200180831161030857829003601f168201915b5050505050905090565b60008061033a6106d7565b90506103478185856106df565b600191505092915050565b6000600254905090565b6000806103676106d7565b90506103748582856108aa565b61037f858585610936565b60019150509392505050565b60006006905090565b60008061039f6106d7565b9050610433818585600160008673ffffffffffffffffffffffffffffffffffffffff1673ffffffffffffffffffffffffffffffffffffffff16815260200190815260200160002060008973ffffffffffffffffffffffffffffffffffffffff1673ffffffffffffffffffffffffffffffffffffffff1681526020019081526020016000205461042e9190611171565b6106df565b600191505092915050565b6104663361044a61038b565b600a610456919061121a565b836104619190611338565b610bb7565b50565b60008060008373ffffffffffffffffffffffffffffffffffffffff1673ffffffffffffffffffffffffffffffffffffffff168152602001908152602001600020549050919050565b6060600480546104c09061141a565b80601f01602080910402602001604051908101604052809291908181526020018280546104ec9061141a565b80156105395780601f1061050e57610100808354040283529160200191610539565b820191906000526020600020905b81548152906001019060200180831161051c57829003601f168201915b5050505050905090565b60008061054e6106d7565b90506000600160008373ffffffffffffffffffffffffffffffffffffffff1673ffffffffffffffffffffffffffffffffffffffff16815260200190815260200160002060008673ffffffffffffffffffffffffffffffffffffffff1673ffffffffffffffffffffffffffffffffffffffff16815260200190815260200160002054905083811015610614576040517f08c379a000000000000000000000000000000000000000000000000000000000815260040161060b906110df565b60405180910390fd5b61062182868684036106df565b60019250505092915050565b6000806106386106d7565b9050610645818585610936565b600191505092915050565b6000600160008473ffffffffffffffffffffffffffffffffffffffff1673ffffffffffffffffffffffffffffffffffffffff16815260200190815260200160002060008373ffffffffffffffffffffffffffffffffffffffff1673ffffffffffffffffffffffffffffffffffffffff16815260200190815260200160002054905092915050565b600033905090565b600073ffffffffffffffffffffffffffffffffffffffff168373ffffffffffffffffffffffffffffffffffffffff16141561074f576040517f08c379a0000000000000000000000000000000000000000000000000000000008152600401610746906110bf565b60405180910390fd5b600073ffffffffffffffffffffffffffffffffffffffff168273ffffffffffffffffffffffffffffffffffffffff1614156107bf576040517f08c379a00000000000000000000000000000000000000000000000000000000081526004016107b69061103f565b60405180910390fd5b80600160008573ffffffffffffffffffffffffffffffffffffffff1673ffffffffffffffffffffffffffffffffffffffff16815260200190815260200160002060008473ffffffffffffffffffffffffffffffffffffffff1673ffffffffffffffffffffffffffffffffffffffff168152602001908152602001600020819055508173ffffffffffffffffffffffffffffffffffffffff168373ffffffffffffffffffffffffffffffffffffffff167f8c5be1e5ebec7d5bd14f71427d1e84f3dd0314c0f7b2291e5b200ac8c7c3b9258360405161089d919061111f565b60405180910390a3505050565b60006108b68484610650565b90507fffffffffffffffffffffffffffffffffffffffffffffffffffffffffffffffff81146109305781811015610922576040517f08c379a00000000000000000000000000000000000000000000000000000000081526004016109199061105f565b60405180910390fd5b61092f84848484036106df565b5b50505050565b600073ffffffffffffffffffffffffffffffffffffffff168373ffffffffffffffffffffffffffffffffffffffff1614156109a6576040517f08c379a000000000000000000000000000000000000000000000000000000000815260040161099d9061109f565b60405180910390fd5b600073ffffffffffffffffffffffffffffffffffffffff168273ffffffffffffffffffffffffffffffffffffffff161415610a16576040517f08c379a0000000000000000000000000000000000000000000000000000000008152600401610a0d9061101f565b60405180910390fd5b610a21838383610d17565b60008060008573ffffffffffffffffffffffffffffffffffffffff1673ffffffffffffffffffffffffffffffffffffffff16815260200190815260200160002054905081811015610aa7576040517f08c379a0000000000000000000000000000000000000000000000000000000008152600401610a9e9061107f565b60405180910390fd5b8181036000808673ffffffffffffffffffffffffffffffffffffffff1673ffffffffffffffffffffffffffffffffffffffff16815260200190815260200160002081905550816000808573ffffffffffffffffffffffffffffffffffffffff1673ffffffffffffffffffffffffffffffffffffffff1681526020019081526020016000206000828254610b3a9190611171565b925050819055508273ffffffffffffffffffffffffffffffffffffffff168473ffffffffffffffffffffffffffffffffffffffff167fddf252ad1be2c89b69c2b068fc378daa952ba7f163c4a11628f55a4df523b3ef84604051610b9e919061111f565b60405180910390a3610bb1848484610d1c565b50505050565b600073ffffffffffffffffffffffffffffffffffffffff168273ffffffffffffffffffffffffffffffffffffffff161415610c27576040517f08c379a0000000000000000000000000000000000000000000000000000000008152600401610c1e906110ff565b60405180910390fd5b610c3360008383610d17565b8060026000828254610c459190611171565b92505081905550806000808473ffffffffffffffffffffffffffffffffffffffff1673ffffffffffffffffffffffffffffffffffffffff1681526020019081526020016000206000828254610c9a9190611171565b925050819055508173ffffffffffffffffffffffffffffffffffffffff16600073ffffffffffffffffffffffffffffffffffffffff167fddf252ad1be2c89b69c2b068fc378daa952ba7f163c4a11628f55a4df523b3ef83604051610cff919061111f565b60405180910390a3610d1360008383610d1c565b5050565b505050565b505050565b600081359050610d30816116f4565b92915050565b600081359050610d458161170b565b92915050565b600060208284031215610d5d57600080fd5b6000610d6b84828501610d21565b91505092915050565b60008060408385031215610d8757600080fd5b6000610d9585828601610d21565b9250506020610da685828601610d21565b9150509250929050565b600080600060608486031215610dc557600080fd5b6000610dd386828701610d21565b9350506020610de486828701610d21565b9250506040610df586828701610d36565b9150509250925092565b60008060408385031215610e1257600080fd5b6000610e2085828601610d21565b9250506020610e3185828601610d36565b9150509250929050565b600060208284031215610e4d57600080fd5b6000610e5b84828501610d36565b91505092915050565b610e6d816113a4565b82525050565b6000610e7e82611155565b610e888185611160565b9350610e988185602086016113e7565b610ea1816114aa565b840191505092915050565b6000610eb9602383611160565b9150610ec4826114c8565b604082019050919050565b6000610edc602283611160565b9150610ee782611517565b604082019050919050565b6000610eff601d83611160565b9150610f0a82611566565b602082019050919050565b6000610f22602683611160565b9150610f2d8261158f565b604082019050919050565b6000610f45602583611160565b9150610f50826115de565b604082019050919050565b6000610f68602483611160565b9150610f738261162d565b604082019050919050565b6000610f8b602583611160565b9150610f968261167c565b604082019050919050565b6000610fae601f83611160565b9150610fb9826116cb565b602082019050919050565b610fcd816113d0565b82525050565b610fdc816113da565b82525050565b6000602082019050610ff76000830184610e64565b92915050565b600060208201905081810360008301526110178184610e73565b905092915050565b6000602082019050818103600083015261103881610eac565b9050919050565b6000602082019050818103600083015261105881610ecf565b9050919050565b6000602082019050818103600083015261107881610ef2565b9050919050565b6000602082019050818103600083015261109881610f15565b9050919050565b600060208201905081810360008301526110b881610f38565b9050919050565b600060208201905081810360008301526110d881610f5b565b9050919050565b600060208201905081810360008301526110f881610f7e565b9050919050565b6000602082019050818103600083015261111881610fa1565b9050919050565b60006020820190506111346000830184610fc4565b92915050565b600060208201905061114f6000830184610fd3565b92915050565b600081519050919050565b600082825260208201905092915050565b600061117c826113d0565b9150611187836113d0565b9250827fffffffffffffffffffffffffffffffffffffffffffffffffffffffffffffffff038211156111bc576111bb61144c565b5b828201905092915050565b6000808291508390505b6001851115611211578086048111156111ed576111ec61144c565b5b60018516156111fc5780820291505b808102905061120a856114bb565b94506111d1565b94509492505050565b6000611225826113d0565b9150611230836113da565b925061125d7fffffffffffffffffffffffffffffffffffffffffffffffffffffffffffffffff8484611265565b905092915050565b6000826112755760019050611331565b816112835760009050611331565b816001811461129957600281146112a3576112d2565b6001915050611331565b60ff8411156112b5576112b461144c565b5b8360020a9150848211156112cc576112cb61144c565b5b50611331565b5060208310610133831016604e8410600b84101617156113075782820a9050838111156113025761130161144c565b5b611331565b61131484848460016111c7565b9250905081840481111561132b5761132a61144c565b5b81810290505b9392505050565b6000611343826113d0565b915061134e836113d0565b9250817fffffffffffffffffffffffffffffffffffffffffffffffffffffffffffffffff04831182151516156113875761138661144c565b5b828202905092915050565b600061139d826113b0565b9050919050565b60008115159050919050565b600073ffffffffffffffffffffffffffffffffffffffff82169050919050565b6000819050919050565b600060ff82169050919050565b60005b838110156114055780820151818401526020810190506113ea565b83811115611414576000848401525b50505050565b6000600282049050600182168061143257607f821691505b602082108114156114465761144561147b565b5b50919050565b7f4e487b7100000000000000000000000000000000000000000000000000000000600052601160045260246000fd5b7f4e487b7100000000000000000000000000000000000000000000000000000000600052602260045260246000fd5b6000601f19601f8301169050919050565b60008160011c9050919050565b7f45524332303a207472616e7366657220746f20746865207a65726f206164647260008201527f6573730000000000000000000000000000000000000000000000000000000000602082015250565b7f45524332303a20617070726f766520746f20746865207a65726f20616464726560008201527f7373000000000000000000000000000000000000000000000000000000000000602082015250565b7f45524332303a20696e73756666696369656e7420616c6c6f77616e6365000000600082015250565b7f45524332303a207472616e7366657220616d6f756e742065786365656473206260008201527f616c616e63650000000000000000000000000000000000000000000000000000602082015250565b7f45524332303a207472616e736665722066726f6d20746865207a65726f20616460008201527f6472657373000000000000000000000000000000000000000000000000000000602082015250565b7f45524332303a20617070726f76652066726f6d20746865207a65726f2061646460008201527f7265737300000000000000000000000000000000000000000000000000000000602082015250565b7f45524332303a2064656372656173656420616c6c6f77616e63652062656c6f7760008201527f207a65726f000000000000000000000000000000000000000000000000000000602082015250565b7f45524332303a206d696e7420746f20746865207a65726f206164647265737300600082015250565b6116fd81611392565b811461170857600080fd5b50565b611714816113d0565b811461171f57600080fd5b5056fea26469706673582212201acafceed55c3e8d30f5cab930b8ffe0b2d9986f280c3e0f872e25d45dd411ce64736f6c63430008040033",
  "linkReferences": {},
  "deployedLinkReferences": {}
}